{
  "contractName": "PeculeTokenManager",
  "abi": [
    {
      "inputs": [],
      "stateMutability": "nonpayable",
      "type": "constructor"
    },
    {
      "anonymous": false,
      "inputs": [
        {
          "indexed": true,
          "internalType": "address",
          "name": "previousOwner",
          "type": "address"
        },
        {
          "indexed": true,
          "internalType": "address",
          "name": "newOwner",
          "type": "address"
        }
      ],
      "name": "OwnershipTransferred",
      "type": "event"
    },
    {
      "inputs": [
        {
          "internalType": "uint256",
          "name": "",
          "type": "uint256"
        }
      ],
      "name": "Estates",
      "outputs": [
        {
          "internalType": "address",
          "name": "tokenAddress",
          "type": "address"
        },
        {
          "internalType": "uint8",
          "name": "ROI",
          "type": "uint8"
        },
        {
          "internalType": "uint256",
          "name": "tokenPrice",
          "type": "uint256"
        },
        {
          "internalType": "uint256",
          "name": "estatePrice",
          "type": "uint256"
        }
      ],
      "stateMutability": "view",
      "type": "function"
    },
    {
      "inputs": [],
      "name": "owner",
      "outputs": [
        {
          "internalType": "address",
          "name": "",
          "type": "address"
        }
      ],
      "stateMutability": "view",
      "type": "function"
    },
    {
      "inputs": [],
      "name": "renounceOwnership",
      "outputs": [],
      "stateMutability": "nonpayable",
      "type": "function"
    },
    {
      "inputs": [
        {
          "internalType": "uint256",
          "name": "",
          "type": "uint256"
        }
      ],
      "name": "tokenList",
      "outputs": [
        {
          "internalType": "contract PCLTTokens",
          "name": "",
          "type": "address"
        }
      ],
      "stateMutability": "view",
      "type": "function"
    },
    {
      "inputs": [
        {
          "internalType": "address",
          "name": "newOwner",
          "type": "address"
        }
      ],
      "name": "transferOwnership",
      "outputs": [],
      "stateMutability": "nonpayable",
      "type": "function"
    },
    {
      "stateMutability": "payable",
      "type": "receive"
    },
    {
      "inputs": [
        {
          "internalType": "uint256",
          "name": "_id",
          "type": "uint256"
        }
      ],
      "name": "getTokensHoldersCount",
      "outputs": [
        {
          "internalType": "uint256",
          "name": "",
          "type": "uint256"
        }
      ],
      "stateMutability": "view",
      "type": "function"
    },
    {
      "inputs": [
        {
          "internalType": "uint256",
          "name": "_tokenId",
          "type": "uint256"
        },
        {
          "internalType": "uint256",
          "name": "_holderId",
          "type": "uint256"
        }
      ],
      "name": "getTokensHolders",
      "outputs": [
        {
          "internalType": "address",
          "name": "",
          "type": "address"
        },
        {
          "internalType": "uint256",
          "name": "",
          "type": "uint256"
        }
      ],
      "stateMutability": "view",
      "type": "function"
    },
    {
      "inputs": [
        {
          "internalType": "uint256",
          "name": "_tokenId",
          "type": "uint256"
        },
        {
          "internalType": "address",
          "name": "_address",
          "type": "address"
        }
      ],
      "name": "removeHolders",
      "outputs": [],
      "stateMutability": "nonpayable",
      "type": "function"
    },
    {
      "inputs": [
        {
          "internalType": "string",
          "name": "_name",
          "type": "string"
        },
        {
          "internalType": "uint256",
          "name": "_totalSupply",
          "type": "uint256"
        },
        {
          "internalType": "uint8",
          "name": "_yearROI",
          "type": "uint8"
        },
        {
          "internalType": "uint256",
          "name": "_estatePrice",
          "type": "uint256"
        },
        {
          "internalType": "uint256",
          "name": "_tokenPrice",
          "type": "uint256"
        }
      ],
      "name": "TokenizeEstate",
      "outputs": [],
      "stateMutability": "nonpayable",
      "type": "function"
    },
    {
      "inputs": [
        {
          "internalType": "uint256",
          "name": "_id",
          "type": "uint256"
        },
        {
          "internalType": "uint256",
          "name": "_amount",
          "type": "uint256"
        }
      ],
      "name": "buyTokens",
      "outputs": [],
      "stateMutability": "payable",
      "type": "function"
    },
    {
      "inputs": [
        {
          "internalType": "uint256",
          "name": "_id",
          "type": "uint256"
        }
      ],
      "name": "_getTokenPriceInwei",
      "outputs": [
        {
          "internalType": "uint256",
          "name": "",
          "type": "uint256"
        }
      ],
      "stateMutability": "view",
      "type": "function"
    },
    {
      "inputs": [
        {
          "internalType": "uint256",
          "name": "_id",
          "type": "uint256"
        }
      ],
      "name": "getBalanceByToken",
      "outputs": [
        {
          "internalType": "uint256",
          "name": "",
          "type": "uint256"
        }
      ],
      "stateMutability": "view",
      "type": "function"
    },
    {
      "inputs": [
        {
          "internalType": "uint256",
          "name": "_id",
          "type": "uint256"
        }
      ],
      "name": "getTotalSupply",
      "outputs": [
        {
          "internalType": "uint256",
          "name": "",
          "type": "uint256"
        }
      ],
      "stateMutability": "view",
      "type": "function"
    },
    {
      "inputs": [
        {
          "internalType": "address",
          "name": "_address",
          "type": "address"
        }
      ],
      "name": "setPCLTTokenContractAddress",
      "outputs": [],
      "stateMutability": "nonpayable",
      "type": "function"
    },
    {
      "inputs": [],
      "name": "openSale",
      "outputs": [],
      "stateMutability": "nonpayable",
      "type": "function"
    },
    {
      "inputs": [],
      "name": "closeSale",
      "outputs": [],
      "stateMutability": "nonpayable",
      "type": "function"
    }
  ],
  "bytecode": "0x608060405234801561001057600080fd5b50600061002161011960201b60201c565b9050806000806101000a81548173ffffffffffffffffffffffffffffffffffffffff021916908373ffffffffffffffffffffffffffffffffffffffff1602179055508073ffffffffffffffffffffffffffffffffffffffff16600073ffffffffffffffffffffffffffffffffffffffff167f8be0079c531659141344cd1fd0a4f28419497f9722a3daafe3b4186f6b6457e060405160405180910390a350739326bfa02add2366b30bacb125260af641031331600160006101000a81548173ffffffffffffffffffffffffffffffffffffffff021916908373ffffffffffffffffffffffffffffffffffffffff160217905550610121565b600033905090565b613c03806101306000396000f3fe6080604052600436106200010f5760003560e01c806392ab723e1162000097578063a94c930d1162000061578063a94c930d1462000579578063b93c1db814620005ce578063ee55efee146200062d578063f2fde38b14620006475762000117565b806392ab723e14620003e957806394c58409146200043c57806399b41ef214620004bd5780639ead722214620005105762000117565b8063715018a611620000d9578063715018a614620002fd5780637975ce28146200031757806387d0b15414620003525780638da5cb5b14620003a55762000117565b806311680aea146200011c578063167ff46f146200016f57806368efb85114620001895780636f8a1eca14620002835762000117565b366200011757005b600080fd5b3480156200012957600080fd5b5062000159600480360360208110156200014257600080fd5b81019080803590602001909291905050506200069c565b6040518082815260200191505060405180910390f35b3480156200017c57600080fd5b506200018762000700565b005b3480156200019657600080fd5b5062000281600480360360a0811015620001af57600080fd5b8101908080359060200190640100000000811115620001cd57600080fd5b820183602082011115620001e057600080fd5b803590602001918460018302840111640100000000831117156200020357600080fd5b91908080601f016020809104026020016040519081016040528093929190818152602001838380828437600081840152601f19601f82011690508083019250505050505050919291929080359060200190929190803560ff169060200190929190803590602001909291908035906020019092919050505062000727565b005b3480156200029057600080fd5b50620002ca60048036036040811015620002a957600080fd5b810190808035906020019092919080359060200190929190505050620009d7565b604051808373ffffffffffffffffffffffffffffffffffffffff1681526020018281526020019250505060405180910390f35b3480156200030a57600080fd5b506200031562000c40565b005b62000350600480360360408110156200032f57600080fd5b81019080803590602001909291908035906020019092919050505062000db2565b005b3480156200035f57600080fd5b506200038f600480360360208110156200037857600080fd5b810190808035906020019092919050505062000fec565b6040518082815260200191505060405180910390f35b348015620003b257600080fd5b50620003bd620010cd565b604051808273ffffffffffffffffffffffffffffffffffffffff16815260200191505060405180910390f35b348015620003f657600080fd5b5062000426600480360360208110156200040f57600080fd5b8101908080359060200190929190505050620010f6565b6040518082815260200191505060405180910390f35b3480156200044957600080fd5b5062000479600480360360208110156200046257600080fd5b8101908080359060200190929190505050620011b6565b604051808573ffffffffffffffffffffffffffffffffffffffff1681526020018460ff16815260200183815260200182815260200194505050505060405180910390f35b348015620004ca57600080fd5b50620004fa60048036036020811015620004e357600080fd5b810190808035906020019092919050505062001213565b6040518082815260200191505060405180910390f35b3480156200051d57600080fd5b506200054d600480360360208110156200053657600080fd5b8101908080359060200190929190505050620012d3565b604051808273ffffffffffffffffffffffffffffffffffffffff16815260200191505060405180910390f35b3480156200058657600080fd5b50620005cc600480360360208110156200059f57600080fd5b81019080803573ffffffffffffffffffffffffffffffffffffffff16906020019092919050505062001306565b005b348015620005db57600080fd5b506200062b60048036036040811015620005f457600080fd5b8101908080359060200190929190803573ffffffffffffffffffffffffffffffffffffffff169060200190929190505050620013fe565b005b3480156200063a57600080fd5b5062000645620014b8565b005b3480156200065457600080fd5b506200069a600480360360208110156200066d57600080fd5b81019080803573ffffffffffffffffffffffffffffffffffffffff16906020019092919050505062001592565b005b600080620006a96200178b565b90506000620006f482620006e5670de0b6b3a76400006006600089815260200190815260200160002060010154620018ee90919063ffffffff16565b6200197990919063ffffffff16565b90508092505050919050565b6001600060146101000a81548160ff021916908360018111156200072057fe5b0217905550565b600062000735600262001a04565b905085670de0b6b3a76400008602604051620007519062001a30565b808060200180602001848152602001838103835285818151815260200191508051906020019080838360005b838110156200079a5780820151818401526020810190506200077d565b50505050905090810190601f168015620007c85780820380516001836020036101000a031916815260200191505b50838103825260038152602001807f5043540000000000000000000000000000000000000000000000000000000000815250602001945050505050604051809103906000f08015801562000820573d6000803e3d6000fd5b50600360006101000a81548173ffffffffffffffffffffffffffffffffffffffff021916908373ffffffffffffffffffffffffffffffffffffffff1602179055506040518060800160405280600360009054906101000a900473ffffffffffffffffffffffffffffffffffffffff1673ffffffffffffffffffffffffffffffffffffffff1681526020018560ff168152602001838152602001848152506006600083815260200190815260200160002060008201518160000160006101000a81548173ffffffffffffffffffffffffffffffffffffffff021916908373ffffffffffffffffffffffffffffffffffffffff16021790555060208201518160000160146101000a81548160ff021916908360ff1602179055506040820151816001015560608201518160020155905050600360009054906101000a900473ffffffffffffffffffffffffffffffffffffffff166007600083815260200190815260200160002060006101000a81548173ffffffffffffffffffffffffffffffffffffffff021916908373ffffffffffffffffffffffffffffffffffffffff160217905550620009cf600262001a12565b505050505050565b6000806007600085815260200190815260200160002060009054906101000a900473ffffffffffffffffffffffffffffffffffffffff1673ffffffffffffffffffffffffffffffffffffffff16637fdd822e846040518263ffffffff1660e01b81526004018082815260200191505060206040518083038186803b15801562000a5f57600080fd5b505afa15801562000a74573d6000803e3d6000fd5b505050506040513d602081101562000a8b57600080fd5b81019080805190602001909291905050506007600086815260200190815260200160002060009054906101000a900473ffffffffffffffffffffffffffffffffffffffff1673ffffffffffffffffffffffffffffffffffffffff166364c7c3706007600088815260200190815260200160002060009054906101000a900473ffffffffffffffffffffffffffffffffffffffff1673ffffffffffffffffffffffffffffffffffffffff16637fdd822e876040518263ffffffff1660e01b81526004018082815260200191505060206040518083038186803b15801562000b7057600080fd5b505afa15801562000b85573d6000803e3d6000fd5b505050506040513d602081101562000b9c57600080fd5b81019080805190602001909291905050506040518263ffffffff1660e01b8152600401808273ffffffffffffffffffffffffffffffffffffffff16815260200191505060206040518083038186803b15801562000bf857600080fd5b505afa15801562000c0d573d6000803e3d6000fd5b505050506040513d602081101562000c2457600080fd5b8101908080519060200190929190505050915091509250929050565b62000c4a62001a28565b73ffffffffffffffffffffffffffffffffffffffff1662000c6a620010cd565b73ffffffffffffffffffffffffffffffffffffffff161462000cf4576040517f08c379a00000000000000000000000000000000000000000000000000000000081526004018080602001828103825260208152602001807f4f776e61626c653a2063616c6c6572206973206e6f7420746865206f776e657281525060200191505060405180910390fd5b600073ffffffffffffffffffffffffffffffffffffffff1660008054906101000a900473ffffffffffffffffffffffffffffffffffffffff1673ffffffffffffffffffffffffffffffffffffffff167f8be0079c531659141344cd1fd0a4f28419497f9722a3daafe3b4186f6b6457e060405160405180910390a360008060006101000a81548173ffffffffffffffffffffffffffffffffffffffff021916908373ffffffffffffffffffffffffffffffffffffffff160217905550565b80341462000e28576040517f08c379a00000000000000000000000000000000000000000000000000000000081526004018080602001828103825260158152602001807f496e636f727265637420616d6f756e742073656e64000000000000000000000081525060200191505060405180910390fd5b60018081111562000e3557fe5b600060149054906101000a900460ff16600181111562000e5157fe5b1462000ec5576040517f08c379a00000000000000000000000000000000000000000000000000000000081526004018080602001828103825260148152602001807f546f6b656e732073616c65206e6f74206f70656e00000000000000000000000081525060200191505060405180910390fd5b600062000f0262000ed6846200069c565b62000ef3670de0b6b3a764000085620018ee90919063ffffffff16565b6200197990919063ffffffff16565b90506007600084815260200190815260200160002060009054906101000a900473ffffffffffffffffffffffffffffffffffffffff1673ffffffffffffffffffffffffffffffffffffffff1663a9059cbb33836040518363ffffffff1660e01b8152600401808373ffffffffffffffffffffffffffffffffffffffff16815260200182815260200192505050602060405180830381600087803b15801562000fa957600080fd5b505af115801562000fbe573d6000803e3d6000fd5b505050506040513d602081101562000fd557600080fd5b810190808051906020019092919050505050505050565b60006007600083815260200190815260200160002060009054906101000a900473ffffffffffffffffffffffffffffffffffffffff1673ffffffffffffffffffffffffffffffffffffffff166370a08231306040518263ffffffff1660e01b8152600401808273ffffffffffffffffffffffffffffffffffffffff16815260200191505060206040518083038186803b1580156200108957600080fd5b505afa1580156200109e573d6000803e3d6000fd5b505050506040513d6020811015620010b557600080fd5b81019080805190602001909291905050509050919050565b60008060009054906101000a900473ffffffffffffffffffffffffffffffffffffffff16905090565b60006007600083815260200190815260200160002060009054906101000a900473ffffffffffffffffffffffffffffffffffffffff1673ffffffffffffffffffffffffffffffffffffffff166318160ddd6040518163ffffffff1660e01b815260040160206040518083038186803b1580156200117257600080fd5b505afa15801562001187573d6000803e3d6000fd5b505050506040513d60208110156200119e57600080fd5b81019080805190602001909291905050509050919050565b60066020528060005260406000206000915090508060000160009054906101000a900473ffffffffffffffffffffffffffffffffffffffff16908060000160149054906101000a900460ff16908060010154908060020154905084565b60006007600083815260200190815260200160002060009054906101000a900473ffffffffffffffffffffffffffffffffffffffff1673ffffffffffffffffffffffffffffffffffffffff166373889f4a6040518163ffffffff1660e01b815260040160206040518083038186803b1580156200128f57600080fd5b505afa158015620012a4573d6000803e3d6000fd5b505050506040513d6020811015620012bb57600080fd5b81019080805190602001909291905050509050919050565b60076020528060005260406000206000915054906101000a900473ffffffffffffffffffffffffffffffffffffffff1681565b6200131062001a28565b73ffffffffffffffffffffffffffffffffffffffff1662001330620010cd565b73ffffffffffffffffffffffffffffffffffffffff1614620013ba576040517f08c379a00000000000000000000000000000000000000000000000000000000081526004018080602001828103825260208152602001807f4f776e61626c653a2063616c6c6572206973206e6f7420746865206f776e657281525060200191505060405180910390fd5b80600460006101000a81548173ffffffffffffffffffffffffffffffffffffffff021916908373ffffffffffffffffffffffffffffffffffffffff16021790555050565b6007600083815260200190815260200160002060009054906101000a900473ffffffffffffffffffffffffffffffffffffffff1673ffffffffffffffffffffffffffffffffffffffff16638dd42808826040518263ffffffff1660e01b8152600401808273ffffffffffffffffffffffffffffffffffffffff168152602001915050600060405180830381600087803b1580156200149b57600080fd5b505af1158015620014b0573d6000803e3d6000fd5b505050505050565b620014c262001a28565b73ffffffffffffffffffffffffffffffffffffffff16620014e2620010cd565b73ffffffffffffffffffffffffffffffffffffffff16146200156c576040517f08c379a00000000000000000000000000000000000000000000000000000000081526004018080602001828103825260208152602001807f4f776e61626c653a2063616c6c6572206973206e6f7420746865206f776e657281525060200191505060405180910390fd5b60008060146101000a81548160ff021916908360018111156200158b57fe5b0217905550565b6200159c62001a28565b73ffffffffffffffffffffffffffffffffffffffff16620015bc620010cd565b73ffffffffffffffffffffffffffffffffffffffff161462001646576040517f08c379a00000000000000000000000000000000000000000000000000000000081526004018080602001828103825260208152602001807f4f776e61626c653a2063616c6c6572206973206e6f7420746865206f776e657281525060200191505060405180910390fd5b600073ffffffffffffffffffffffffffffffffffffffff168173ffffffffffffffffffffffffffffffffffffffff161415620016ce576040517f08c379a000000000000000000000000000000000000000000000000000000000815260040180806020018281038252602681526020018062003b876026913960400191505060405180910390fd5b8073ffffffffffffffffffffffffffffffffffffffff1660008054906101000a900473ffffffffffffffffffffffffffffffffffffffff1673ffffffffffffffffffffffffffffffffffffffff167f8be0079c531659141344cd1fd0a4f28419497f9722a3daafe3b4186f6b6457e060405160405180910390a3806000806101000a81548173ffffffffffffffffffffffffffffffffffffffff021916908373ffffffffffffffffffffffffffffffffffffffff16021790555050565b600080600080600080600160009054906101000a900473ffffffffffffffffffffffffffffffffffffffff1673ffffffffffffffffffffffffffffffffffffffff1663feaf968c6040518163ffffffff1660e01b815260040160a06040518083038186803b158015620017fd57600080fd5b505afa15801562001812573d6000803e3d6000fd5b505050506040513d60a08110156200182957600080fd5b8101908080519060200190929190805190602001909291908051906020019092919080519060200190929190805190602001909291905050509450945094509450945060008211620018e3576040517f08c379a00000000000000000000000000000000000000000000000000000000081526004018080602001828103825260128152602001807f526f756e64206e6f7420636f6d706c657465000000000000000000000000000081525060200191505060405180910390fd5b839550505050505090565b60008083141562001903576000905062001973565b60008284029050828482816200191557fe5b04146200196e576040517f08c379a000000000000000000000000000000000000000000000000000000000815260040180806020018281038252602181526020018062003bad6021913960400191505060405180910390fd5b809150505b92915050565b6000808211620019f1576040517f08c379a000000000000000000000000000000000000000000000000000000000815260040180806020018281038252601a8152602001807f536166654d6174683a206469766973696f6e206279207a65726f00000000000081525060200191505060405180910390fd5b818381620019fb57fe5b04905092915050565b600081600001549050919050565b6001816000016000828254019250508190555050565b600033905090565b6121488062001a3f8339019056fe60806040523480156200001157600080fd5b506040516200214838038062002148833981810160405260608110156200003757600080fd5b81019080805160405193929190846401000000008211156200005857600080fd5b838201915060208201858111156200006f57600080fd5b82518660018202830111640100000000821117156200008d57600080fd5b8083526020830192505050908051906020019080838360005b83811015620000c3578082015181840152602081019050620000a6565b50505050905090810190601f168015620000f15780820380516001836020036101000a031916815260200191505b50604052602001805160405193929190846401000000008211156200011557600080fd5b838201915060208201858111156200012c57600080fd5b82518660018202830111640100000000821117156200014a57600080fd5b8083526020830192505050908051906020019080838360005b838110156200018057808201518184015260208101905062000163565b50505050905090810190601f168015620001ae5780820380516001836020036101000a031916815260200191505b506040526020018051906020019092919050505082828160089080519060200190620001dc92919062000450565b508060099080519060200190620001f592919062000450565b50505060006200020a620002c460201b60201c565b905080600a60006101000a81548173ffffffffffffffffffffffffffffffffffffffff021916908373ffffffffffffffffffffffffffffffffffffffff1602179055508073ffffffffffffffffffffffffffffffffffffffff16600073ffffffffffffffffffffffffffffffffffffffff167f8be0079c531659141344cd1fd0a4f28419497f9722a3daafe3b4186f6b6457e060405160405180910390a350620002bb3382620002cc60201b60201c565b50505062000506565b600033905090565b600073ffffffffffffffffffffffffffffffffffffffff168273ffffffffffffffffffffffffffffffffffffffff16141562000370576040517f08c379a000000000000000000000000000000000000000000000000000000000815260040180806020018281038252601f8152602001807f45524332303a206d696e7420746f20746865207a65726f20616464726573730081525060200191505060405180910390fd5b62000384600083836200044b60201b60201c565b8060066000828254019250508190555080600460008473ffffffffffffffffffffffffffffffffffffffff1673ffffffffffffffffffffffffffffffffffffffff168152602001908152602001600020600082825401925050819055508173ffffffffffffffffffffffffffffffffffffffff16600073ffffffffffffffffffffffffffffffffffffffff167fddf252ad1be2c89b69c2b068fc378daa952ba7f163c4a11628f55a4df523b3ef836040518082815260200191505060405180910390a35050565b505050565b828054600181600116156101000203166002900490600052602060002090601f016020900481019282620004885760008555620004d4565b82601f10620004a357805160ff1916838001178555620004d4565b82800160010185558215620004d4579182015b82811115620004d3578251825591602001919060010190620004b6565b5b509050620004e39190620004e7565b5090565b5b8082111562000502576000816000905550600101620004e8565b5090565b611c3280620005166000396000f3fe608060405234801561001057600080fd5b50600436106101165760003560e01c806373889f4a116100a257806395d89b411161007157806395d89b41146104d1578063a457c2d714610554578063a9059cbb146105b8578063dd62ed3e1461061c578063f2fde38b1461069457610116565b806373889f4a146103e35780637fdd822e146104015780638da5cb5b146104595780638dd428081461048d57610116565b8063313ce567116100e9578063313ce567146102a457806339509351146102c557806364c7c3701461032957806370a0823114610381578063715018a6146103d957610116565b806306fdde031461011b578063095ea7b31461019e57806318160ddd1461020257806323b872dd14610220575b600080fd5b6101236106d8565b6040518080602001828103825283818151815260200191508051906020019080838360005b83811015610163578082015181840152602081019050610148565b50505050905090810190601f1680156101905780820380516001836020036101000a031916815260200191505b509250505060405180910390f35b6101ea600480360360408110156101b457600080fd5b81019080803573ffffffffffffffffffffffffffffffffffffffff1690602001909291908035906020019092919050505061077a565b60405180821515815260200191505060405180910390f35b61020a610798565b6040518082815260200191505060405180910390f35b61028c6004803603606081101561023657600080fd5b81019080803573ffffffffffffffffffffffffffffffffffffffff169060200190929190803573ffffffffffffffffffffffffffffffffffffffff169060200190929190803590602001909291905050506107a2565b60405180821515815260200191505060405180910390f35b6102ac61092d565b604051808260ff16815260200191505060405180910390f35b610311600480360360408110156102db57600080fd5b81019080803573ffffffffffffffffffffffffffffffffffffffff16906020019092919080359060200190929190505050610936565b60405180821515815260200191505060405180910390f35b61036b6004803603602081101561033f57600080fd5b81019080803573ffffffffffffffffffffffffffffffffffffffff1690602001909291905050506109d9565b6040518082815260200191505060405180910390f35b6103c36004803603602081101561039757600080fd5b81019080803573ffffffffffffffffffffffffffffffffffffffff169060200190929190505050610a22565b6040518082815260200191505060405180910390f35b6103e1610a6b565b005b6103eb610bdb565b6040518082815260200191505060405180910390f35b61042d6004803603602081101561041757600080fd5b8101908080359060200190929190505050610be7565b604051808273ffffffffffffffffffffffffffffffffffffffff16815260200191505060405180910390f35b610461610c27565b604051808273ffffffffffffffffffffffffffffffffffffffff16815260200191505060405180910390f35b6104cf600480360360208110156104a357600080fd5b81019080803573ffffffffffffffffffffffffffffffffffffffff169060200190929190505050610c51565b005b6104d9610ee9565b6040518080602001828103825283818151815260200191508051906020019080838360005b838110156105195780820151818401526020810190506104fe565b50505050905090810190601f1680156105465780820380516001836020036101000a031916815260200191505b509250505060405180910390f35b6105a06004803603604081101561056a57600080fd5b81019080803573ffffffffffffffffffffffffffffffffffffffff16906020019092919080359060200190929190505050610f8b565b60405180821515815260200191505060405180910390f35b610604600480360360408110156105ce57600080fd5b81019080803573ffffffffffffffffffffffffffffffffffffffff1690602001909291908035906020019092919050505061110a565b60405180821515815260200191505060405180910390f35b61067e6004803603604081101561063257600080fd5b81019080803573ffffffffffffffffffffffffffffffffffffffff169060200190929190803573ffffffffffffffffffffffffffffffffffffffff169060200190929190505050611128565b6040518082815260200191505060405180910390f35b6106d6600480360360208110156106aa57600080fd5b81019080803573ffffffffffffffffffffffffffffffffffffffff1690602001909291905050506111af565b005b606060088054600181600116156101000203166002900480601f0160208091040260200160405190810160405280929190818152602001828054600181600116156101000203166002900480156107705780601f1061074557610100808354040283529160200191610770565b820191906000526020600020905b81548152906001019060200180831161075357829003601f168201915b5050505050905090565b600061078e6107876113a4565b84846113ac565b6001905092915050565b6000600654905090565b60006107af8484846115a3565b81600560008673ffffffffffffffffffffffffffffffffffffffff1673ffffffffffffffffffffffffffffffffffffffff16815260200190815260200160002060006107f96113a4565b73ffffffffffffffffffffffffffffffffffffffff1673ffffffffffffffffffffffffffffffffffffffff16815260200190815260200160002054101561088b576040517f08c379a0000000000000000000000000000000000000000000000000000000008152600401808060200182810382526028815260200180611b676028913960400191505060405180910390fd5b610922846108976113a4565b84600560008973ffffffffffffffffffffffffffffffffffffffff1673ffffffffffffffffffffffffffffffffffffffff16815260200190815260200160002060006108e16113a4565b73ffffffffffffffffffffffffffffffffffffffff1673ffffffffffffffffffffffffffffffffffffffff16815260200190815260200160002054036113ac565b600190509392505050565b60006012905090565b60006109cf6109436113a4565b8484600560006109516113a4565b73ffffffffffffffffffffffffffffffffffffffff1673ffffffffffffffffffffffffffffffffffffffff16815260200190815260200160002060008873ffffffffffffffffffffffffffffffffffffffff1673ffffffffffffffffffffffffffffffffffffffff16815260200190815260200160002054016113ac565b6001905092915050565b6000600160008373ffffffffffffffffffffffffffffffffffffffff1673ffffffffffffffffffffffffffffffffffffffff168152602001908152602001600020549050919050565b6000600460008373ffffffffffffffffffffffffffffffffffffffff1673ffffffffffffffffffffffffffffffffffffffff168152602001908152602001600020549050919050565b610a736113a4565b73ffffffffffffffffffffffffffffffffffffffff16610a91610c27565b73ffffffffffffffffffffffffffffffffffffffff1614610b1a576040517f08c379a00000000000000000000000000000000000000000000000000000000081526004018080602001828103825260208152602001807f4f776e61626c653a2063616c6c6572206973206e6f7420746865206f776e657281525060200191505060405180910390fd5b600073ffffffffffffffffffffffffffffffffffffffff16600a60009054906101000a900473ffffffffffffffffffffffffffffffffffffffff1673ffffffffffffffffffffffffffffffffffffffff167f8be0079c531659141344cd1fd0a4f28419497f9722a3daafe3b4186f6b6457e060405160405180910390a36000600a60006101000a81548173ffffffffffffffffffffffffffffffffffffffff021916908373ffffffffffffffffffffffffffffffffffffffff160217905550565b60008080549050905090565b6000808281548110610bf557fe5b9060005260206000200160009054906101000a900473ffffffffffffffffffffffffffffffffffffffff169050919050565b6000600a60009054906101000a900473ffffffffffffffffffffffffffffffffffffffff16905090565b600360008273ffffffffffffffffffffffffffffffffffffffff1673ffffffffffffffffffffffffffffffffffffffff16815260200190815260200160002060009054906101000a900460ff16610ca757610ee6565b600360008273ffffffffffffffffffffffffffffffffffffffff1673ffffffffffffffffffffffffffffffffffffffff16815260200190815260200160002060006101000a81549060ff0219169055600160008273ffffffffffffffffffffffffffffffffffffffff1673ffffffffffffffffffffffffffffffffffffffff168152602001908152602001600020600090556000600260008373ffffffffffffffffffffffffffffffffffffffff1673ffffffffffffffffffffffffffffffffffffffff168152602001908152602001600020549050600060016000805490500390506000808281548110610d9857fe5b9060005260206000200160009054906101000a900473ffffffffffffffffffffffffffffffffffffffff16905082600260008373ffffffffffffffffffffffffffffffffffffffff1673ffffffffffffffffffffffffffffffffffffffff16815260200190815260200160002081905550600260008573ffffffffffffffffffffffffffffffffffffffff1673ffffffffffffffffffffffffffffffffffffffff168152602001908152602001600020600090558060008481548110610e5a57fe5b9060005260206000200160006101000a81548173ffffffffffffffffffffffffffffffffffffffff021916908373ffffffffffffffffffffffffffffffffffffffff1602179055506000805480610ead57fe5b6001900381819060005260206000200160006101000a81549073ffffffffffffffffffffffffffffffffffffffff021916905590555050505b50565b606060098054600181600116156101000203166002900480601f016020809104026020016040519081016040528092919081815260200182805460018160011615610100020316600290048015610f815780601f10610f5657610100808354040283529160200191610f81565b820191906000526020600020905b815481529060010190602001808311610f6457829003601f168201915b5050505050905090565b60008160056000610f9a6113a4565b73ffffffffffffffffffffffffffffffffffffffff1673ffffffffffffffffffffffffffffffffffffffff16815260200190815260200160002060008573ffffffffffffffffffffffffffffffffffffffff1673ffffffffffffffffffffffffffffffffffffffff168152602001908152602001600020541015611069576040517f08c379a0000000000000000000000000000000000000000000000000000000008152600401808060200182810382526025815260200180611bd86025913960400191505060405180910390fd5b6111006110746113a4565b8484600560006110826113a4565b73ffffffffffffffffffffffffffffffffffffffff1673ffffffffffffffffffffffffffffffffffffffff16815260200190815260200160002060008873ffffffffffffffffffffffffffffffffffffffff1673ffffffffffffffffffffffffffffffffffffffff16815260200190815260200160002054036113ac565b6001905092915050565b600061111e6111176113a4565b84846115a3565b6001905092915050565b6000600560008473ffffffffffffffffffffffffffffffffffffffff1673ffffffffffffffffffffffffffffffffffffffff16815260200190815260200160002060008373ffffffffffffffffffffffffffffffffffffffff1673ffffffffffffffffffffffffffffffffffffffff16815260200190815260200160002054905092915050565b6111b76113a4565b73ffffffffffffffffffffffffffffffffffffffff166111d5610c27565b73ffffffffffffffffffffffffffffffffffffffff161461125e576040517f08c379a00000000000000000000000000000000000000000000000000000000081526004018080602001828103825260208152602001807f4f776e61626c653a2063616c6c6572206973206e6f7420746865206f776e657281525060200191505060405180910390fd5b600073ffffffffffffffffffffffffffffffffffffffff168173ffffffffffffffffffffffffffffffffffffffff1614156112e4576040517f08c379a0000000000000000000000000000000000000000000000000000000008152600401808060200182810382526026815260200180611af96026913960400191505060405180910390fd5b8073ffffffffffffffffffffffffffffffffffffffff16600a60009054906101000a900473ffffffffffffffffffffffffffffffffffffffff1673ffffffffffffffffffffffffffffffffffffffff167f8be0079c531659141344cd1fd0a4f28419497f9722a3daafe3b4186f6b6457e060405160405180910390a380600a60006101000a81548173ffffffffffffffffffffffffffffffffffffffff021916908373ffffffffffffffffffffffffffffffffffffffff16021790555050565b600033905090565b600073ffffffffffffffffffffffffffffffffffffffff168373ffffffffffffffffffffffffffffffffffffffff161415611432576040517f08c379a0000000000000000000000000000000000000000000000000000000008152600401808060200182810382526024815260200180611bb46024913960400191505060405180910390fd5b600073ffffffffffffffffffffffffffffffffffffffff168273ffffffffffffffffffffffffffffffffffffffff1614156114b8576040517f08c379a0000000000000000000000000000000000000000000000000000000008152600401808060200182810382526022815260200180611b1f6022913960400191505060405180910390fd5b80600560008573ffffffffffffffffffffffffffffffffffffffff1673ffffffffffffffffffffffffffffffffffffffff16815260200190815260200160002060008473ffffffffffffffffffffffffffffffffffffffff1673ffffffffffffffffffffffffffffffffffffffff168152602001908152602001600020819055508173ffffffffffffffffffffffffffffffffffffffff168373ffffffffffffffffffffffffffffffffffffffff167f8c5be1e5ebec7d5bd14f71427d1e84f3dd0314c0f7b2291e5b200ac8c7c3b925836040518082815260200191505060405180910390a3505050565b600073ffffffffffffffffffffffffffffffffffffffff168373ffffffffffffffffffffffffffffffffffffffff161415611629576040517f08c379a0000000000000000000000000000000000000000000000000000000008152600401808060200182810382526025815260200180611b8f6025913960400191505060405180910390fd5b600073ffffffffffffffffffffffffffffffffffffffff168273ffffffffffffffffffffffffffffffffffffffff1614156116af576040517f08c379a0000000000000000000000000000000000000000000000000000000008152600401808060200182810382526023815260200180611ad66023913960400191505060405180910390fd5b6116ba8383836118e8565b80600460008573ffffffffffffffffffffffffffffffffffffffff1673ffffffffffffffffffffffffffffffffffffffff168152602001908152602001600020541015611752576040517f08c379a0000000000000000000000000000000000000000000000000000000008152600401808060200182810382526026815260200180611b416026913960400191505060405180910390fd5b80600460008573ffffffffffffffffffffffffffffffffffffffff1673ffffffffffffffffffffffffffffffffffffffff1681526020019081526020016000206000828254039250508190555080600460008473ffffffffffffffffffffffffffffffffffffffff1673ffffffffffffffffffffffffffffffffffffffff1681526020019081526020016000206000828254019250508190555061183583600460008673ffffffffffffffffffffffffffffffffffffffff1673ffffffffffffffffffffffffffffffffffffffff168152602001908152602001600020546118ed565b61187e82600460008573ffffffffffffffffffffffffffffffffffffffff1673ffffffffffffffffffffffffffffffffffffffff168152602001908152602001600020546118ed565b8173ffffffffffffffffffffffffffffffffffffffff168373ffffffffffffffffffffffffffffffffffffffff167fddf252ad1be2c89b69c2b068fc378daa952ba7f163c4a11628f55a4df523b3ef836040518082815260200191505060405180910390a3505050565b505050565b600360008373ffffffffffffffffffffffffffffffffffffffff1673ffffffffffffffffffffffffffffffffffffffff16815260200190815260200160002060009054906101000a900460ff16156119885780600160008473ffffffffffffffffffffffffffffffffffffffff1673ffffffffffffffffffffffffffffffffffffffff16815260200190815260200160002081905550611ad1565b6001600360008473ffffffffffffffffffffffffffffffffffffffff1673ffffffffffffffffffffffffffffffffffffffff16815260200190815260200160002060006101000a81548160ff02191690831515021790555080600160008473ffffffffffffffffffffffffffffffffffffffff1673ffffffffffffffffffffffffffffffffffffffff16815260200190815260200160002081905550600080549050600260008473ffffffffffffffffffffffffffffffffffffffff1673ffffffffffffffffffffffffffffffffffffffff168152602001908152602001600020819055506000829080600181540180825580915050600190039060005260206000200160009091909190916101000a81548173ffffffffffffffffffffffffffffffffffffffff021916908373ffffffffffffffffffffffffffffffffffffffff1602179055505b505056fe45524332303a207472616e7366657220746f20746865207a65726f20616464726573734f776e61626c653a206e6577206f776e657220697320746865207a65726f206164647265737345524332303a20617070726f766520746f20746865207a65726f206164647265737345524332303a207472616e7366657220616d6f756e7420657863656564732062616c616e636545524332303a207472616e7366657220616d6f756e74206578636565647320616c6c6f77616e636545524332303a207472616e736665722066726f6d20746865207a65726f206164647265737345524332303a20617070726f76652066726f6d20746865207a65726f206164647265737345524332303a2064656372656173656420616c6c6f77616e63652062656c6f77207a65726fa2646970667358221220bcdd3361fc561f5f56ec86288eea257601acbd892f0d7293376eb2a4a3105f7764736f6c634300070600334f776e61626c653a206e6577206f776e657220697320746865207a65726f2061646472657373536166654d6174683a206d756c7469706c69636174696f6e206f766572666c6f77a26469706673582212207667339a2e18e129f28594a0f38221201837dbf17a28191fb82dc03d41c7515b64736f6c63430007060033",
  "immutableReferences": {},
  "source": "// contracts/PeculeTokenManager.sol\n// SPDX-License-Identifier: MIT\n\npragma solidity >=0.7.0 <0.8.0;\nimport \"@chainlink/contracts/src/v0.6/interfaces/AggregatorV3Interface.sol\";\nimport \"@openzeppelin/contracts/math/SafeMath.sol\";\nimport \"@openzeppelin/contracts/utils/Counters.sol\";\nimport \"@openzeppelin/contracts/access/Ownable.sol\";\nimport \"./PeculeToken.sol\";\n interface PCLTTokensInterface {\n    enum State { SALE_CLOSED, SALE_OPEN}\n    function balanceOf(address _address) external;\n    function totalSupply() external;\n    function getHoldersBalances(address _address) external view;\n    function getHolderAddress(uint _id) external view;\n    function removeHolder(address _address) external;\n    function getHoldersCount() external;\n }\n \n\ncontract PeculeTokenManager is Ownable{\n    using Counters for Counters.Counter;\n    using SafeMath for uint;\n    using SafeMath for int;\n    \n    enum State { SALE_CLOSED, SALE_OPEN}\n    State CurrentState;\n    \n    struct Estate {\n        address tokenAddress;\n        uint8 ROI;\n        uint tokenPrice;\n        uint estatePrice;\n    }\n    \n    AggregatorV3Interface internal priceFeed;\n    Counters.Counter private estateIds;\n    PCLTTokens private token; \n    PCLTTokensInterface private PCLTTokensContract;\n    \n    mapping(address => uint256) private tokensBalances;\n    mapping(uint => Estate) public Estates; // use to find witch token address is linked with estate id.\n    mapping(uint => PCLTTokens) public tokenList;\n    \n    \n    receive() external payable {}\n    \n    /**\n     * Network: Kovan\n     * Aggregator: ETH/USD\n     * Address: 0x9326BFA02ADD2366b30bacB125260Af641031331\n     */\n    constructor()  {\n        priceFeed = AggregatorV3Interface(0x9326BFA02ADD2366b30bacB125260Af641031331);\n    }\n    \n    function getTokensHoldersCount(uint _id) public view returns(uint) {\n         return tokenList[_id].getHoldersCount();\n    }\n    \n    function getTokensHolders(uint _tokenId, uint _holderId) public view returns(address, uint) {\n        return( tokenList[_tokenId].getHolderAddress(_holderId), tokenList[_tokenId].getHoldersBalances( tokenList[_tokenId].getHolderAddress(_holderId)));\n    }\n    \n    function removeHolders(uint _tokenId, address _address) public {\n         tokenList[_tokenId].removeHolder(_address);\n    }\n    \n    \n    function getLatestPrice() private view returns(int) {\n        (\n            uint80 roundID, \n            int price,\n            uint startedAt,\n            uint timeStamp,\n            uint80 answeredInRound\n        ) = priceFeed.latestRoundData();\n        // If the round is not complete yet, timestamp is 0\n        require(timeStamp > 0, \"Round not complete\");\n        return (price);\n    }\n    \n    function TokenizeEstate(\n        string memory _name,\n        uint _totalSupply,\n        uint8 _yearROI,\n        uint _estatePrice,\n        uint _tokenPrice\n        ) public {\n            \n        uint estateId = estateIds.current();\n        token = new PCLTTokens(_name, \"PCT\", _totalSupply*10**18);\n        Estates[estateId] = Estate(address(token), _yearROI, _tokenPrice, _estatePrice);\n        tokenList[estateId] = token;\n        \n        estateIds.increment();\n    }\n    \n    function buyTokens(uint _id, uint _amount ) public payable {\n        require(msg.value == _amount, \"Incorrect amount send\");\n        require(CurrentState == State.SALE_OPEN, \"Tokens sale not open\");\n        uint tokenToSent = (_amount.mul(10**18)).div(_getTokenPriceInwei(_id));\n        tokenList[_id].transfer(msg.sender, tokenToSent);\n        // todo store the buyer address and number of shares in 2 arrays\n    }\n    \n    function _getTokenPriceInwei(uint _id) public view returns(uint) {\n        uint EthPrice  = uint(getLatestPrice());\n        uint tokenPrice = (Estates[_id].tokenPrice.mul(10**18)).div(EthPrice);\n        return tokenPrice;\n    }\n    \n    function getBalanceByToken(uint _id) public view returns(uint) {\n        return tokenList[_id].balanceOf(address(this));\n    }\n    \n    function getTotalSupply(uint _id) public view returns(uint) {\n         return tokenList[_id].totalSupply();\n    }\n    \n    function setPCLTTokenContractAddress(address _address) external onlyOwner {\n        PCLTTokensContract = PCLTTokensInterface(_address);\n    }\n    \n    function openSale() public {\n        CurrentState = State.SALE_OPEN;\n    }\n    \n    function closeSale() public onlyOwner{\n        CurrentState = State.SALE_CLOSED;\n    }\n}",
  "sourcePath": "/mnt/c/Users/damie/Documents/pecule_test_drizzle/contracts/PeculeTokensManager.sol",
  "compiler": {
    "name": "solc",
    "version": "0.7.6+commit.7338295f.Emscripten.clang"
  },
  "schemaVersion": "3.3.2",
  "updatedAt": "2021-04-05T13:43:24.914Z",
  "devdoc": {
    "kind": "dev",
    "methods": {
      "owner()": {
        "details": "Returns the address of the current owner."
      },
      "renounceOwnership()": {
        "details": "Leaves the contract without owner. It will not be possible to call `onlyOwner` functions anymore. Can only be called by the current owner. NOTE: Renouncing ownership will leave the contract without an owner, thereby removing any functionality that is only available to the owner."
      },
      "transferOwnership(address)": {
        "details": "Transfers ownership of the contract to a new account (`newOwner`). Can only be called by the current owner."
      }
    },
    "version": 1
  },
  "userdoc": {
    "kind": "user",
    "methods": {
      "constructor": {
        "notice": "Network: Kovan Aggregator: ETH/USD Address: 0x9326BFA02ADD2366b30bacB125260Af641031331"
      }
    },
    "version": 1
  }
}